{
  "_format": "hh-sol-artifact-1",
  "contractName": "Upload",
  "sourceName": "contracts/Upload.sol",
  "abi": [
    {
      "inputs": [
        {
          "internalType": "address",
          "name": "_user",
          "type": "address"
        },
        {
          "internalType": "string",
          "name": "url",
          "type": "string"
        }
      ],
      "name": "add",
      "outputs": [],
      "stateMutability": "nonpayable",
      "type": "function"
    },
    {
      "inputs": [
        {
          "internalType": "address",
          "name": "user",
          "type": "address"
        }
      ],
      "name": "allow",
      "outputs": [],
      "stateMutability": "nonpayable",
      "type": "function"
    },
    {
      "inputs": [
        {
          "internalType": "address",
          "name": "user",
          "type": "address"
        }
      ],
      "name": "disAllow",
      "outputs": [],
      "stateMutability": "nonpayable",
      "type": "function"
    },
    {
      "inputs": [
        {
          "internalType": "address",
          "name": "_user",
          "type": "address"
        }
      ],
      "name": "display",
      "outputs": [
        {
          "internalType": "string[]",
          "name": "",
          "type": "string[]"
        }
      ],
      "stateMutability": "view",
      "type": "function"
    },
    {
      "inputs": [],
      "name": "shareAccess",
      "outputs": [
        {
          "components": [
            {
              "internalType": "address",
              "name": "user",
              "type": "address"
            },
            {
              "internalType": "bool",
              "name": "access",
              "type": "bool"
            }
          ],
          "internalType": "struct Upload.Access[]",
          "name": "",
          "type": "tuple[]"
        }
      ],
      "stateMutability": "view",
      "type": "function"
    }
  ],
  "bytecode": "0x608060405234801561001057600080fd5b50611409806100206000396000f3fe608060405234801561001057600080fd5b50600436106100575760003560e01c806336d6da551461005c578063bc8bef8114610078578063cf8aacdd14610096578063eb39113f146100b2578063ff9913e8146100e2575b600080fd5b61007660048036038101906100719190610cb2565b6100fe565b005b610080610173565b60405161008d9190610e16565b60405180910390f35b6100b060048036038101906100ab9190610e38565b61027c565b005b6100cc60048036038101906100c79190610e38565b61049e565b6040516100d99190610fa6565b60405180910390f35b6100fc60048036038101906100f79190610e38565b6106b4565b005b6000808373ffffffffffffffffffffffffffffffffffffffff1673ffffffffffffffffffffffffffffffffffffffff1681526020019081526020016000208190806001815401808255809150506001900390600052602060002001600090919091909150908161016e91906111de565b505050565b6060600260003373ffffffffffffffffffffffffffffffffffffffff1673ffffffffffffffffffffffffffffffffffffffff168152602001908152602001600020805480602002602001604051908101604052809291908181526020016000905b82821015610273578382906000526020600020016040518060400160405290816000820160009054906101000a900473ffffffffffffffffffffffffffffffffffffffff1673ffffffffffffffffffffffffffffffffffffffff1673ffffffffffffffffffffffffffffffffffffffff1681526020016000820160149054906101000a900460ff161515151581525050815260200190600101906101d4565b50505050905090565b6000600160003373ffffffffffffffffffffffffffffffffffffffff1673ffffffffffffffffffffffffffffffffffffffff16815260200190815260200160002060008373ffffffffffffffffffffffffffffffffffffffff1673ffffffffffffffffffffffffffffffffffffffff16815260200190815260200160002060006101000a81548160ff02191690831515021790555060005b600260003373ffffffffffffffffffffffffffffffffffffffff1673ffffffffffffffffffffffffffffffffffffffff1681526020019081526020016000208054905081101561049a578173ffffffffffffffffffffffffffffffffffffffff16600260003373ffffffffffffffffffffffffffffffffffffffff1673ffffffffffffffffffffffffffffffffffffffff16815260200190815260200160002082815481106103c6576103c56112b0565b5b9060005260206000200160000160009054906101000a900473ffffffffffffffffffffffffffffffffffffffff1673ffffffffffffffffffffffffffffffffffffffff1603610487576000600260003373ffffffffffffffffffffffffffffffffffffffff1673ffffffffffffffffffffffffffffffffffffffff1681526020019081526020016000208281548110610462576104616112b0565b5b9060005260206000200160000160146101000a81548160ff0219169083151502179055505b80806104929061130e565b915050610314565b5050565b60603373ffffffffffffffffffffffffffffffffffffffff168273ffffffffffffffffffffffffffffffffffffffff1614806105605750600160008373ffffffffffffffffffffffffffffffffffffffff1673ffffffffffffffffffffffffffffffffffffffff16815260200190815260200160002060003373ffffffffffffffffffffffffffffffffffffffff1673ffffffffffffffffffffffffffffffffffffffff16815260200190815260200160002060009054906101000a900460ff165b61059f576040517f08c379a0000000000000000000000000000000000000000000000000000000008152600401610596906113b3565b60405180910390fd5b6000808373ffffffffffffffffffffffffffffffffffffffff1673ffffffffffffffffffffffffffffffffffffffff168152602001908152602001600020805480602002602001604051908101604052809291908181526020016000905b828210156106a957838290600052602060002001805461061c90610ff7565b80601f016020809104026020016040519081016040528092919081815260200182805461064890610ff7565b80156106955780601f1061066a57610100808354040283529160200191610695565b820191906000526020600020905b81548152906001019060200180831161067857829003601f168201915b5050505050815260200190600101906105fd565b505050509050919050565b60018060003373ffffffffffffffffffffffffffffffffffffffff1673ffffffffffffffffffffffffffffffffffffffff16815260200190815260200160002060008373ffffffffffffffffffffffffffffffffffffffff1673ffffffffffffffffffffffffffffffffffffffff16815260200190815260200160002060006101000a81548160ff021916908315150217905550600360003373ffffffffffffffffffffffffffffffffffffffff1673ffffffffffffffffffffffffffffffffffffffff16815260200190815260200160002060008273ffffffffffffffffffffffffffffffffffffffff1673ffffffffffffffffffffffffffffffffffffffff16815260200190815260200160002060009054906101000a900460ff16156109665760005b600260003373ffffffffffffffffffffffffffffffffffffffff1673ffffffffffffffffffffffffffffffffffffffff16815260200190815260200160002080549050811015610960578173ffffffffffffffffffffffffffffffffffffffff16600260003373ffffffffffffffffffffffffffffffffffffffff1673ffffffffffffffffffffffffffffffffffffffff168152602001908152602001600020828154811061088c5761088b6112b0565b5b9060005260206000200160000160009054906101000a900473ffffffffffffffffffffffffffffffffffffffff1673ffffffffffffffffffffffffffffffffffffffff160361094d576001600260003373ffffffffffffffffffffffffffffffffffffffff1673ffffffffffffffffffffffffffffffffffffffff1681526020019081526020016000208281548110610928576109276112b0565b5b9060005260206000200160000160146101000a81548160ff0219169083151502179055505b80806109589061130e565b9150506107da565b50610af7565b600260003373ffffffffffffffffffffffffffffffffffffffff1673ffffffffffffffffffffffffffffffffffffffff16815260200190815260200160002060405180604001604052808373ffffffffffffffffffffffffffffffffffffffff168152602001600115158152509080600181540180825580915050600190039060005260206000200160009091909190915060008201518160000160006101000a81548173ffffffffffffffffffffffffffffffffffffffff021916908373ffffffffffffffffffffffffffffffffffffffff16021790555060208201518160000160146101000a81548160ff02191690831515021790555050506001600360003373ffffffffffffffffffffffffffffffffffffffff1673ffffffffffffffffffffffffffffffffffffffff16815260200190815260200160002060008373ffffffffffffffffffffffffffffffffffffffff1673ffffffffffffffffffffffffffffffffffffffff16815260200190815260200160002060006101000a81548160ff0219169083151502179055505b50565b6000604051905090565b600080fd5b600080fd5b600073ffffffffffffffffffffffffffffffffffffffff82169050919050565b6000610b3982610b0e565b9050919050565b610b4981610b2e565b8114610b5457600080fd5b50565b600081359050610b6681610b40565b92915050565b600080fd5b600080fd5b6000601f19601f8301169050919050565b7f4e487b7100000000000000000000000000000000000000000000000000000000600052604160045260246000fd5b610bbf82610b76565b810181811067ffffffffffffffff82111715610bde57610bdd610b87565b5b80604052505050565b6000610bf1610afa565b9050610bfd8282610bb6565b919050565b600067ffffffffffffffff821115610c1d57610c1c610b87565b5b610c2682610b76565b9050602081019050919050565b82818337600083830152505050565b6000610c55610c5084610c02565b610be7565b905082815260208101848484011115610c7157610c70610b71565b5b610c7c848285610c33565b509392505050565b600082601f830112610c9957610c98610b6c565b5b8135610ca9848260208601610c42565b91505092915050565b60008060408385031215610cc957610cc8610b04565b5b6000610cd785828601610b57565b925050602083013567ffffffffffffffff811115610cf857610cf7610b09565b5b610d0485828601610c84565b9150509250929050565b600081519050919050565b600082825260208201905092915050565b6000819050602082019050919050565b610d4381610b2e565b82525050565b60008115159050919050565b610d5e81610d49565b82525050565b604082016000820151610d7a6000850182610d3a565b506020820151610d8d6020850182610d55565b50505050565b6000610d9f8383610d64565b60408301905092915050565b6000602082019050919050565b6000610dc382610d0e565b610dcd8185610d19565b9350610dd883610d2a565b8060005b83811015610e09578151610df08882610d93565b9750610dfb83610dab565b925050600181019050610ddc565b5085935050505092915050565b60006020820190508181036000830152610e308184610db8565b905092915050565b600060208284031215610e4e57610e4d610b04565b5b6000610e5c84828501610b57565b91505092915050565b600081519050919050565b600082825260208201905092915050565b6000819050602082019050919050565b600081519050919050565b600082825260208201905092915050565b60005b83811015610ecb578082015181840152602081019050610eb0565b60008484015250505050565b6000610ee282610e91565b610eec8185610e9c565b9350610efc818560208601610ead565b610f0581610b76565b840191505092915050565b6000610f1c8383610ed7565b905092915050565b6000602082019050919050565b6000610f3c82610e65565b610f468185610e70565b935083602082028501610f5885610e81565b8060005b85811015610f945784840389528151610f758582610f10565b9450610f8083610f24565b925060208a01995050600181019050610f5c565b50829750879550505050505092915050565b60006020820190508181036000830152610fc08184610f31565b905092915050565b7f4e487b7100000000000000000000000000000000000000000000000000000000600052602260045260246000fd5b6000600282049050600182168061100f57607f821691505b60208210810361102257611021610fc8565b5b50919050565b60008190508160005260206000209050919050565b60006020601f8301049050919050565b600082821b905092915050565b60006008830261108a7fffffffffffffffffffffffffffffffffffffffffffffffffffffffffffffffff8261104d565b611094868361104d565b95508019841693508086168417925050509392505050565b6000819050919050565b6000819050919050565b60006110db6110d66110d1846110ac565b6110b6565b6110ac565b9050919050565b6000819050919050565b6110f5836110c0565b611109611101826110e2565b84845461105a565b825550505050565b600090565b61111e611111565b6111298184846110ec565b505050565b5b8181101561114d57611142600082611116565b60018101905061112f565b5050565b601f8211156111925761116381611028565b61116c8461103d565b8101602085101561117b578190505b61118f6111878561103d565b83018261112e565b50505b505050565b600082821c905092915050565b60006111b560001984600802611197565b1980831691505092915050565b60006111ce83836111a4565b9150826002028217905092915050565b6111e782610e91565b67ffffffffffffffff811115611200576111ff610b87565b5b61120a8254610ff7565b611215828285611151565b600060209050601f8311600181146112485760008415611236578287015190505b61124085826111c2565b8655506112a8565b601f19841661125686611028565b60005b8281101561127e57848901518255600182019150602085019450602081019050611259565b8683101561129b5784890151611297601f8916826111a4565b8355505b6001600288020188555050505b505050505050565b7f4e487b7100000000000000000000000000000000000000000000000000000000600052603260045260246000fd5b7f4e487b7100000000000000000000000000000000000000000000000000000000600052601160045260246000fd5b6000611319826110ac565b91507fffffffffffffffffffffffffffffffffffffffffffffffffffffffffffffffff820361134b5761134a6112df565b5b600182019050919050565b600082825260208201905092915050565b7f596f7520646f6e27742068617665206163636573732121210000000000000000600082015250565b600061139d601883611356565b91506113a882611367565b602082019050919050565b600060208201905081810360008301526113cc81611390565b905091905056fea2646970667358221220715fb7045439658d6756edaa930c6c8184c81cd84708df66c92f367af2e129e664736f6c63430008110033",
  "linkReferences": {},
  "deployedLinkReferences": {}
}